:02000002D0002C
:1040000000400D00D4650D00000006000D00050104
:084010000401DE0500000000C0
:0440180088610D00AE
:1040200009480A49884208B505D0094A824202D0A7
:10403000121A02F065F80748074A0021121A02F026
:104040006AF8014808BD00BF0CE3032034650D0089
:1040500084E3032084E30320F0E7032070B500F03D
:1040600091FD074C074BE41AA40800251E46A54203
:1040700004D056F8253098470135F8E770BD00BFE9
:1040800024650D00EC640D0000F014B808B500F0D4
:1040900039F9BDE8084000F037BD00F00FBB00F073
:1040A0000DBB0078B0FA80F040097047012303701F
:1040B0007047000038B50E4D0E4C00F033FF4FF442
:1040C000964100F029FF0121288801F017F901210C
:1040D000208801F013F90021288801F020F900213F
:1040E000208801F01CF900F07DF9034B186038BD01
:1040F00014E3032018E3032088E3032038B5114BB1
:1041000004460121188801F00AF9642000F0BEFC81
:10411000651E053400F006FF036815F8011F9B6853
:104120009847A542F6D100F0FDFE0368DB69984789
:104130000220002101F0F3F80A20BDE8384000F029
:10414000A5BC00BF14E3032038B505461AB90368BF
:104150009B68984702E0D2B200F097FB04462846DD
:1041600000F07DFB204438BD70B5594D06460C4625
:104170002888012101F0D3F841F2883000F086FC54
:104180003046FFF7BBFF00F0CDFE03681B69984780
:104190002E46002800F08D80002500F0C3FE036845
:1041A0005B699847605502350C2DF6D100F0E6FDAD
:1041B0004849494D00F05FFB00F0E0FD10222178F6
:1041C000FFF7C2FF00F0DAFD1022A178FFF7BCFF75
:1041D00000F0D4FD10222179FFF7B6FF00F0CEFDEC
:1041E0001022A179FFF7B0FF00F0C8FD1022217A5C
:1041F000FFF7AAFF00F0C2FD1022A17AFFF7A4FF8B
:1042000000F0BCFD354900F036FB00F08BFE036882
:10421000DB69984700F0B2FD314900F02CFB207AB1
:1042200007EE900AF8EE677A17EE900A01F0BEFBEF
:1042300025A3D3E9002301F00DFC0022294B01F056
:1042400055FA01F0FFFE286000F098FD264900F0C5
:10425000FFFA00F093FD95ED000A244D022100F0D5
:10426000F3FB00F08BFD224900F005FBA3791B0254
:1042700007EE903A2379B8EEE77A07EE903AF8EE37
:10428000677A77EE277A9FED1B7A67EE877AC5ED1E
:10429000007A00F073FD184900F0DAFA00F06EFDC4
:1042A000022195ED000A00F0CFFB00F067FD1349F5
:1042B00002E000F063FD124900F0DDFA30880021D1
:1042C000BDE8704001F02BB80EF3E505D847DF3F9D
:1042D00018E303209C610D009CE30320A7610D00FF
:1042E000B0610D0000004940C3610D00A0E3032050
:1042F000D1610D000000003CD4610D00DC610D00B7
:10430000E0610D0008B500F00DFE0368DB69984719
:1043100000F068F80A4B0B4A1860136847F22F51F7
:10432000C31A8B420AD9106007490848FFF71CFFDF
:1043300000F024FDBDE8084000F091BA08BD00BFC0
:104340008CE3032088E3032090E303200CE30320A5
:1043500000F010B808B5024B1B689B68019308BDBC
:104360006802030008B5024B1B68DB68019308BDB7
:104370006802030008B5024B1B681B68019308BD67
:104380002C02030008B5024B1B689B68019308BD13
:104390002C02030008B5024B1B68DB68019308BDC3
:1043A0002C02030008B5024B1B681B69019308BD72
:1043B0002C02030008B5024B1B68DB69019308BDA2
:1043C0003002030008B5024B1B681B6A019308BD4D
:1043D0003002030008B5024B1B685B68019308BDFF
:1043E0001802030008B5024B1B685B69019308BD06
:1043F0001802030008B5024B1B689B68019308BDB7
:104400004802030008B5024B1B681B69019308BDF5
:104410004802030008B5024B1B685B69019308BDA5
:104420004802030008B5024B1B685B6C019308BD92
:104430004802030008B5024B1B689B6C019308BD42
:104440004802030008B5024B1B685B69019308BD75
:104450006402030008B5024B1B681B68019308BD8A
:104460003C02030008B5024B1B68DB68019308BDE2
:104470003C02030008B5024B1B681B69019308BD91
:104480003C02030008B5024B1B685B69019308BD41
:104490003C02030008B5024B1B689B69019308BDF1
:1044A0003C02030008B5024B1B68DB69019308BDA1
:1044B0003C02030008B5024B1B681B6A019308BD50
:1044C0003C02030008B5024B1B689B6A019308BDC0
:1044D0003C02030008B5024B1B68DB6A019308BD70
:1044E0003C02030008B5024B1B681B6A019308BD20
:1044F0002802030008B5024B1B685B6A019308BDE4
:104500002802030008B5024B1B689B6A019308BD93
:104510002802030008B5024B1B68DB6A019308BD43
:104520002802030008B5024B1B681B6B019308BDF2
:104530002802030008B5024B1B685B6B019308BDA2
:104540002802030008B5024B1B681B6C019308BDD1
:104550002802030008B5024B1B681B68019308BDC5
:104560004C02030008B5024B1B681B69019308BD90
:104570004C02030008B5024B1B685B69019308BD40
:104580004C02030008B5024B1B689B69019308BDF0
:104590004C02030008B5024B1B68DB69019308BDA0
:1045A0004C02030008B5024B1B681B6A019308BD4F
:1045B0004C02030008B5024B1B685B68019308BD01
:1045C0002002030008B5024B1B685B69019308BD1C
:1045D0002002030008B5034B1B68D3F88830019311
:1045E00008BD00002002030008B5034B1B68D3F888
:1045F0009430019308BD00002002030008B5024B6F
:104600001B685B68019308BD4002030008B5024BBC
:104610001B689B68019308BD4002030008B5024B6C
:104620001B68DB68019308BD4002030008B5024B1C
:104630001B681B69019308BD4002030008B5024BCB
:104640001B685B69019308BD4002030008B5024B7B
:104650001B689B69019308BD4002030008B5024B2B
:104660001B68DB69019308BD4002030008B5024BDB
:104670001B681B6A019308BD4002030008B5024B8A
:104680001B681B6B019308BD4002030008B5024B79
:104690001B685B6B019308BD4002030008B5024B29
:1046A0001B68DB6B019308BD4402030008B5024B95
:1046B0001B681B68019308BD1C02030008B5024B70
:1046C0001B685B68019308BD1C02030000221146B1
:1046D0004068FFF7CBBF002211464068FFF7D6BF06
:1046E00000224068FFF7CABF002281F00101406844
:1046F000FFF7B4BF00231A4619464068FFF7A6BF6C
:1047000000231A4619464068FFF798BF0022114659
:104710004068FFF78BBF002211464068FFF776BF65
:10472000002202214068FFF779BF00231A46406843
:10473000FFF764BF024B03225A60024A1A607047B7
:10474000A4E30320FC610D00704710B50C21044662
:1047500000F06CFE204610BD10B5054B036004460A
:1047600001710846FFF726FE0023A360204610BD16
:1047700030620D000079FFF725BE10B504460068D1
:1047800018B1FFF79BFF0023236010BD10B504464E
:10479000FFF7F3FF204610BD10B5094C00204FF67F
:1047A000FF732060A080A07120816381FFF702FF6A
:1047B0002046044A0449BDE8104000F029BE00BF6D
:1047C000ACE3032084E303208D470D0010B50446BD
:1047D000006808B1FFF72EFE204610BD10B5064C4C
:1047E000002320462360FFF71DFE2046034A0449AC
:1047F000BDE8104000F00CBEB8E3032084E30320C2
:10480000CD470D00F8B506460D468F180024BD4271
:104810000CD0336815F8011B9B6830469847002878
:1048200001DB0444F3E7002C08BF04462046F8BD32
:1048300070B505460C46084649B101F09DFC2B6851
:10484000024621462846DB68BDE87040184770BD27
:1048500008B5FFF7EDFF08BD03689B68184738B53A
:104860000D210546FFF7F8FF0A2104462846FFF709
:10487000F3FF204438BD38B50546FFF7D9FF04469D
:104880002846FFF7ECFF204438BD30B58BB00B460F
:1048900000218DF82410012A98BF0A220DF123046B
:1048A000B3FBF2F505FB123303F0FF03092B94BFB2
:1048B00030333733DBB2214604F801392B46002D63
:1048C000EED1FFF7B5FF0BB030BD00002DE9F0478A
:1048D00057EC106B82460D4610EE102A3B4610EE48
:1048E000100A394601F050FB08B14E4912E027F09A
:1048F00000494FF0FF324C4B3046494601F044FB33
:1049000068B94FF0FF32484B3046494601F01EFB74
:1049100028B946495046FFF78BFFBDE8F0874FF0B6
:104920006042434B3046394601F024FB08B141490F
:10493000F0E74FF06042404B3046394601F0FCFA58
:104940000028F4D1002200233046394601F0F4FA61
:1049500040B12D215046FFF77FFF07F10043044689
:104960001F4600E0044635494FF0000800205FFA7A
:1049700088F39D4206D90022314B01F095F908F1E8
:104980000108F4E732463B4600F0B2FE0F46064609
:1049900001F038FB0A22014680465046FFF775FFBA
:1049A0000444E5B3404600F0DFFF02460B463046C4
:1049B000394600F09BFE06460F4650462149FFF758
:1049C00037FF044400221E4B3046394601F042F8BE
:1049D00006460F4601F0EEFAB0F1000907DA2D2184
:1049E0005046FFF739FFC9F10001804602E0494611
:1049F0004FF000080A225046FFF747FF40440444A6
:104A0000484600F0C1FF02460B463046394600F0EA
:104A10006DFE013D15F0FF0506460F46D2D120463A
:104A2000BDE8F08738620D00FFFFEF7F42620D00A6
:104A3000FFFFEF413C620D00FFFFEFC10000E03FD0
:104A40000000244040620D0038B5044610EE100A04
:104A5000CDB200F0ABFF41EC100B29462046BDE87B
:104A60003840FFF733BF0000014B024A1A6070471D
:104A7000BCE30320B9620D00024B1A68024B1A60B6
:104A8000704700BF1CE30320C0E303200021FFF7B1
:104A900099BD10B58368044613B1032201469847B7
:104AA000204610BD10B50446FFF7F3FF204610BDA9
:104AB0000348044A04490023836000F0A9BC00BFF6
:104AC000C4E3032084E30320A54A0D0008B50C4B82
:104AD00033B100F053F903681B699847002809DCDB
:104AE000084B63B100F01EFA03681B699847002861
:104AF00003DC08BDAFF30080F2E7AFF3008008BD30
:104B0000000000000000000008B5FFF7DFFFFFF71E
:104B100069FC014B186008BD30E703200248034AD6
:104B20000349121A01F0ECBA00F4032004F4032044
:104B300030650D0007B5002300931A466FF077012A
:104B4000FFF752FD03B05DF804FB000007B5438892
:104B50000A2B08D0502B09D1094B1B683BB103B07D
:104B60005DF804EB1847FFF7E5FF06E0002300932C
:104B70001A466FF07701FFF737FD03B05DF804FBCD
:104B8000D4E3032038B5104C104D2368AB42104BD2
:104B90000CBF012200221A7002D0FFF7BFFF256070
:104BA000FFF718FC044601F0BFFA0A4B13B1204688
:104BB000AFF3008000210748FFF770FD0021064891
:104BC000BDE83840FFF706BD00F403201E1C279AFD
:104BD000D8E30320000000004D4B0D00704710B5D6
:104BE0001821044600F022FC204610BDF0B5037DDC
:104BF000062B8DB00E4600F104074FF0000402D0E2
:104C000000F1080518E00CAD394605F8304D2F23AA
:104C10002A460A20FFF716FC284601F0ADFA336851
:104C20000246DB682946304698470FE024B12E2122
:104C30003046FFF711FE044415F8011D0A223046E4
:104C4000FFF723FEBD420444F0D120460DB0F0BD75
:104C500010B5054B0446112240F8043B002101F039
:104C60005AFA204610BD00BF58630D000346074A9C
:104C700010B543F8042B01F1100251F8044B43F82E
:104C8000044B9142F9D10A781A7010BD58630D0097
:104C900010B59DF8084044EA032343EA024242EA81
:104CA000016104234160037510BD37B50D788B7821
:104CB0004A78C97800912946FFF7EAFF03B030BD72
:104CC00041747047704708B50021007CFFF75AFC1B
:104CD00030EA200028BF4FF0FF3008BD08B50121A1
:104CE000007CFFF74FFC30EA200028BF4FF0FF3078
:104CF00008BD08B5007CFFF73DFC20EAE07008BD68
:104D000008B5007CFFF72EFC20EAE07008BD007CAF
:104D1000FFF748BC10B51421044600F087FB20467D
:104D200010BD38B50446007C0D46FFF723FC002873
:104D300001DC607C28B12946207CFFF72BFC20EAAF
:104D4000E07038BD10B50446002363604FF47A73F9
:104D5000A360054B23600123084621746374114648
:104D6000FFF7F8FB204610BD6C630D0010B5142250
:104D70000446002101F0CFF9204610BD30B50E4D9C
:104D800087B001A8FFF7F2FF296811F0010410D1E4
:104D90002846FFF786F960B101AA21460748FFF7C8
:104DA000D1FF2846FFF782F9054A0649034800F07B
:104DB0002FFB024807B030BDDCE30320E0E3032013
:104DC00084E30320C54C0D00002211464068FFF724
:104DD0002DBC002211464068FFF748BC0022114656
:104DE0004068FFF753BC00224068FFF747BC002231
:104DF00081F001014068FFF731BC00231A461946D3
:104E00004068FFF723BC00231A4619464068FFF7A5
:104E100015BC002211464068FFF7F8BB00220221B2
:104E20004068FFF7FBBB00231A464068FFF7E6BB6C
:104E300038B5084C28252A460021204601F06BF998
:104E40004FF0FF336360044B258004225A60034A0D
:104E50001A6038BDFCE30320F4E303209C630D00DB
:104E600070474174704708B5007CFFF72BFB20EAC0
:104E7000E07008BD08B5007CFFF7FCFA20EAE0709E
:104E800008BD08B5007CFFF705FB30EA200028BF0D
:104E90004FF0FF3008BD08B5007CFFF7F3FA30EAA9
:104EA000200028BF4FF0FF3008BD007CFFF7FABAA2
:104EB00010B51421044600F0B9FA204610BD70B5B3
:104EC000457C04460E4625B9007CFFF7FBFA002816
:104ED00005DD3146207CBDE87040FFF7C3BA2846A7
:104EE00070BD000010B504460846114600226260FD
:104EF0004FF47A72A260054A226001222074627423
:104F00001A46FFF7A7FA204610BD00BFD0630D0078
:104F10000023007CFFF7DEBA0022FFF7F9BF007C18
:104F2000FFF7C8BA38B50C4D296811F0010411D14A
:104F30002846FFF7B6F868B1084A094B09482146E8
:104F4000FFF7D0FF2846FFF7B1F8074A07490548A1
:104F500000F05EFA034838BDBCE40320C0E403203F
:104F600038E4032024E4032084E30320614E0D0091
:104F70007047F8B5064615460C468F18BC4206D059
:104F8000336814F8011B9B6830469847F6E72846BB
:104F9000F8BD0022007CFFF7A5BA0021007CFFF7D6
:104FA000A9BA0021007CFFF7ADBA0021007CFFF711
:104FB000B1BA0021007CFFF7B5BA10B51421044640
:104FC00000F034FA204610BD10B50446002363609B
:104FD0004FF47A73A360044B217408462360114692
:104FE000FFF7B0FA204610BD00640D000021007CE0
:104FF000FFF7A0BA002211464068FFF737BB002236
:1050000011464068FFF742BB00224068FFF736BBFD
:10501000002281F001014068FFF720BB00231A46FF
:1050200001214068FFF712BB00231A461946406869
:10503000FFF704BB002211464068FFF7F7BA0022D1
:1050400011464068FFF7E2BA002202214068FFF7EC
:10505000E5BA00231A464068FFF7D0BA38B50546CE
:1050600088B104684CB1A3681BB1032221462046D5
:1050700098471021204600F0D9F928461421BDE8B0
:10508000384000F0D3B938BD10B103685B681847E9
:10509000704710B503680446BBB15868FFF7AAF91A
:1050A00078B923685A7C12B95868FFF7ABF92368BE
:1050B0005868FFF7AFF920680023236028B1FFF795
:1050C000CDFF206808B1FFF7C9FF204610BD38B5F5
:1050D0000446D0F8C40108B1FEF7E1FFD4F8C001DE
:1050E00008B1FFF7A7F9D4F8BC5135B12846FFF74E
:1050F000D0FF0421284600F099F9206808B1FFF795
:10510000C3FF204638BD000010B5044B044640F8EC
:10511000083BFFF7DCFF204610BD00BF28640D00F0
:1051200038B50E4C0E4B23600025022304F5E470C5
:105130006360A560C4F8C451C4F8C851FFF772F9A0
:10514000084BC4F8CC5184F8D05123602046064A5D
:105150000649BDE8384000F05BB900BF44E50320D4
:105160005C640D0028640D0084E3032009510D00E8
:1051700000231A464068FFF741BA00220221406826
:10518000FFF74CBA002211464068FFF73FBA0022F1
:1051900011464068FFF74ABA00231A46194640688C
:1051A000FFF74CBA00231A4619464068FFF74EBA7B
:1051B000002281F001014068FFF750BA00224068E8
:1051C000FFF75CBA002211464068FFF75FBA002281
:1051D00011464068FFF74ABA2DE9F043002495B024
:1051E00016460D460746FFF733FD214620220CA840
:1051F000009400F090FF40230C9321466B460CAACC
:105200003046FFF7AFF80446002844D1024601219A
:105210006868FFF70BFA0221804622466868FFF7AC
:1052200005FA009E81462146002E34D0002932D155
:105230007368022B02D00A2B09D02AE0B8F1000FC4
:1052400027D0716938460431FFF72FFD20E0B9F10E
:10525000000F1ED07469112201A800F05CFF062324
:105260008DF8143001AD04F108031834186859683A
:105270002A4603C20833A3421546F7D101A906A85E
:1052800007ADFFF7F3FC0FCD3C1D0FC42B68237057
:105290000121F669C8E70098FFF75CF8384615B0B9
:1052A000BDE8F083024B034A1A6000225A6070473F
:1052B00018E703205C640D0010B5044600F048F8C0
:1052C000FFF758FA28B1A4F10B03022B01D80020F4
:1052D00010BD00F077F8FFF789FE08B1012CF6D970
:1052E000FFF720FEFFF71BFE18B1A4F10903012B05
:1052F000EDD9232C8CBF0020012010BD232838B508
:1053000004460D460AD8FF2908D0FFF7D5FF28B17B
:1053100029462046BDE83840FFF734B838BD38B5D7
:1053200004460D46FFF736F8FF2810D0062804D8AB
:105330004D2323FA00F0C30709D42046FFF7BCFF32
:1053400028B129462046BDE83840FFF72BB838BDC4
:1053500038B50B4D296811F001040FD12846FEF72E
:10536000A0FE58B121460748FFF7F6F92846FEF798
:105370009DFE054A0549034800F04AF8014838BD3A
:105380002CE7032020E7032084E3032049470D0096
:1053900070B5044614252A46094E002100F0BBFED4
:1053A000258020253146A5602561284600F040F87B
:1053B00031466060284600F03BF8E060204670BD52
:1053C00088640D0030B50E4D296811F0010487B0D6
:1053D00013D12846FEF765FE78B101A8FFF7D8FF84
:1053E00001AA21460748FFF7EFFD2846FEF75EFEBB
:1053F000054A0649034800F00BF8024807B030BDE3
:1054000034E7032038E7032084E30320714F0D00C5
:105410000B460146184600F065BE0000024B1868B6
:10542000BFF35F8F704700BF4CE70320FEF735BE28
:1054300000F000B810B5002814BF0446012420462F
:10544000FFF734F920B9FFF7E9FF08B18047F6E725
:1054500010BD0000184B1A68D1075CBF01221A600A
:10546000164B1A68D2075CBF01221A60144B1A68E7
:10547000D0075CBF01221A60124B1A68D1075CBFCB
:1054800001221A60104B1A68D2075CBF01221A6011
:105490000E4B1A68D0075CBF01221A600C4B1A68C9
:1054A000D1075CBF01221A600A4B1A68D2075CBFA1
:1054B00001221A60704700BF6CE7032068E70320F1
:1054C00064E7032060E703205CE7032058E703203C
:1054D00054E7032050E70320244B1A68D0075CBF31
:1054E00001221A60224B1A68D1075CBF01221A60A0
:1054F000204B1A68D2075CBF01221A601E4B1A6843
:10550000D0075CBF01221A601C4B1A68D1075CBF30
:1055100001221A601A4B1A68D2075CBF01221A6076
:10552000184B1A68D0075CBF01221A60164B1A6824
:10553000D1075CBF01221A60144B1A68D2075CBF06
:1055400001221A60124B1A68D0075CBF01221A6050
:10555000104B1A68D1075CBF01221A600E4B1A6803
:10556000D2075CBF01221A60704700BF9CE703208E
:1055700098E7032094E7032090E703208CE70320BB
:1055800088E7032084E7032080E703207CE70320EB
:1055900078E7032074E7032070E70320244B1A68A0
:1055A000D0075CBF01221A60224B1A68D1075CBF8A
:1055B00001221A60204B1A68D2075CBF01221A60D0
:1055C0001E4B1A68D0075CBF01221A601C4B1A6878
:1055D000D1075CBF01221A601A4B1A68D2075CBF60
:1055E00001221A60184B1A68D0075CBF01221A60AA
:1055F000164B1A68D1075CBF01221A60144B1A6857
:10560000D2075CBF01221A60124B1A68D0075CBF38
:1056100001221A60104B1A68D1075CBF01221A6080
:105620000E4B1A68D2075CBF01221A60704700BF98
:10563000CCE70320C8E70320C4E70320C0E703202A
:10564000BCE70320B8E70320B4E70320B0E703205A
:10565000ACE70320A8E70320A4E70320A0E703208A
:10566000184B1A68D1075CBF01221A60164B1A68E2
:10567000D2075CBF01221A60144B1A68D0075CBFC6
:1056800001221A60124B1A68D1075CBF01221A600E
:10569000104B1A68D2075CBF01221A600E4B1A68C1
:1056A000D0075CBF01221A600C4B1A68D1075CBF9F
:1056B00001221A600A4B1A68D2075CBF01221A60E5
:1056C000704700BFECE70320E8E70320E4E703208E
:1056D000E0E70320DCE70320D8E70320D4E703203A
:1056E000D0E7032081F0004102E000BF83F00043D7
:1056F00030B54FEA41044FEA430594EA050F08BF6D
:1057000090EA020F1FBF54EA000C55EA020C7FEA30
:10571000645C7FEA655C00F0E2804FEA5454D4EBAD
:105720005555B8BF6D420CDD2C4480EA020281EA77
:10573000030382EA000083EA010180EA020281EAAF
:105740000303362D88BF30BD11F0004F4FEA013101
:105750004FF4801C4CEA113102D0404261EB410110
:1057600013F0004F4FEA03334CEA133302D0524296
:1057700063EB430394EA050F00F0A780A4F1010452
:10578000D5F1200E0DDB02FA0EFC22FA05F280188C
:1057900041F1000103FA0EF2801843FA05F3594172
:1057A0000EE0A5F120050EF1200E012A03FA0EFCF1
:1057B00028BF4CF0020C43FA05F3C01851EBE3711B
:1057C00001F0004507D54FF0000EDCF1000C7EEB38
:1057D00000006EEB0101B1F5801F1BD3B1F5001F76
:1057E0000CD349085FEA30004FEA3C0C04F1010495
:1057F0004FEA445212F5800F80F09A80BCF1004FBE
:1058000008BF5FEA500C50F1000041EB045141EA3F
:10581000050130BD5FEA4C0C404141EB010111F440
:10582000801FA4F10104E9D191F0000F04BF0146EB
:105830000020B1FA81F308BF2033A3F10B03B3F1C9
:1058400020020CDA0C3208DD02F1140CC2F10C0259
:1058500001FA0CF021FA02F10CE002F11402D8BFB7
:10586000C2F1200C01FA02F120FA0CFCDCBF41EA83
:105870000C019040E41AA2BF01EB0451294330BD52
:105880006FEA04041F3C1CDA0C340EDC04F114042F
:10589000C4F1200220FA04F001FA02F340EA030006
:1058A00021FA04F345EA030130BDC4F10C04C4F14C
:1058B000200220FA02F001FA04F340EA030029462C
:1058C00030BD21FA04F0294630BD94F0000F83F476
:1058D000801306BF81F480110134013D4EE77FEA59
:1058E000645C18BF7FEA655C29D094EA050F08BFA5
:1058F00090EA020F05D054EA000C04BF1946104686
:1059000030BD91EA030F1EBF0021002030BD5FEAC9
:10591000545C05D14000494128BF41F0004130BDF1
:1059200014F580043CBF01F5801130BD01F0004545
:1059300045F0FE4141F470014FF0000030BD7FEAB8
:10594000645C1ABF194610467FEA655C1CBF0B46B3
:10595000024650EA013406BF52EA033591EA030FCA
:1059600041F4002130BD00BF90F0000F04BF0021C2
:10597000704730B54FF4806404F132044FF00005F5
:105980004FF0000150E700BF90F0000F04BF00216E
:10599000704730B54FF4806404F1320410F00045D4
:1059A00048BF40424FF000013EE700BF42004FEACF
:1059B000E2014FEA31014FEA02701FBF12F07F434C
:1059C00093F07F4F81F06051704792F0000F14BF49
:1059D00093F07F4F704730B54FF4607401F000458D
:1059E00021F0004120E700BF50EA010208BF7047E4
:1059F00030B54FF000050AE050EA010208BF7047D9
:105A000030B511F0004502D5404261EB41014FF441
:105A1000806404F132045FEA915C3FF4DCAE4FF045
:105A200003025FEADC0C18BF03325FEADC0C18BF2C
:105A3000033202EBDC02C2F1200300FA03FC20FA7D
:105A400002F001FA03FE40EA0E0021FA02F11444CA
:105A5000C1E600BF70B54FF0FF0C4CF4E06C1CEADF
:105A600011541DBF1CEA135594EA0C0F95EA0C0F54
:105A700000F0DEF82C4481EA030621EA4C5123EAC7
:105A80004C5350EA013518BF52EA033541F48011F6
:105A900043F4801338D0A0FB02CE4FF00005E1FBA9
:105AA00002E506F00042E0FB03E54FF00006E1FBF3
:105AB00003569CF0000F18BF4EF0010EA4F1FF0436
:105AC000B6F5007F64F5407404D25FEA4E0E6D4176
:105AD00046EB060642EAC62141EA55514FEAC52087
:105AE00040EA5E504FEACE2EB4F1FD0C88BFBCF503
:105AF000E06F1ED8BEF1004F08BF5FEA500E50F1B4
:105B0000000041EB045170BD06F0004646EA010179
:105B100040EA020081EA0301B4EB5C04C2BFD4EBAB
:105B20000C0541EA045170BD41F480114FF0000EA4
:105B3000013C00F3AB8014F1360FDEBF002001F012
:105B4000004170BDC4F10004203C35DA0C341BDC8C
:105B500004F11404C4F1200500FA05F320FA04F05E
:105B600001FA05F240EA020001F0004221F0004192
:105B700010EBD37021FA04F642EB06015EEA430E05
:105B800008BF20EAD37070BDC4F10C04C4F1200535
:105B900000FA04F320FA05F001FA04F240EA0200E8
:105BA00001F0004110EBD37041F100015EEA430EB9
:105BB00008BF20EAD37070BDC4F1200500FA05F2D9
:105BC0004EEA020E20FA04F301FA05F243EA020358
:105BD00021FA04F001F0004121FA04F220EA020067
:105BE00000EBD3705EEA430E08BF20EAD37070BDAD
:105BF00094F0000F0FD101F00046400041EB01018D
:105C000011F4801F08BF013CF7D041EA060195F06E
:105C1000000F18BF704703F00046520043EB030328
:105C200013F4801F08BF013DF7D043EA0603704715
:105C300094EA0C0F0CEA135518BF95EA0C0F0CD020
:105C400050EA410618BF52EA4306D1D181EA030166
:105C500001F000414FF0000070BD50EA410606BF60
:105C60001046194652EA430619D094EA0C0F02D1A5
:105C700050EA013613D195EA0C0F05D152EA0336EA
:105C80001CBF104619460AD181EA030101F0004108
:105C900041F0FE4141F470014FF0000070BD41F051
:105CA000FE4141F4780170BD70B54FF0FF0C4CF42B
:105CB000E06C1CEA11541DBF1CEA135594EA0C0F4A
:105CC00095EA0C0F00F0A7F8A4EB050481EA030E97
:105CD00052EA03354FEA013100F088804FEA03337E
:105CE0004FF0805545EA131343EA12634FEA02224C
:105CF00045EA111545EA10654FEA00260EF000410D
:105D00009D4208BF964244F1FD0404F5407402D25E
:105D10005B084FEA3202B61A65EB03055B084FEAEF
:105D200032024FF480104FF4002CB6EB020E75EBEC
:105D3000030E22BFB61A754640EA0C005B084FEA14
:105D40003202B6EB020E75EB030E22BFB61A754691
:105D500040EA5C005B084FEA3202B6EB020E75EBDC
:105D6000030E22BFB61A754640EA9C005B084FEA54
:105D70003202B6EB020E75EB030E22BFB61A754661
:105D800040EADC0055EA060E18D04FEA051545EA50
:105D900016754FEA06164FEAC30343EA52734FEAF9
:105DA000C2025FEA1C1CC0D111F4801F0BD141EA72
:105DB00000014FF000004FF0004CB6E711F4801FD7
:105DC00004BF01430020B4F1FD0C88BFBCF5E06FB7
:105DD0003FF6AFAEB5EB030C04BFB6EB020C5FEAC7
:105DE000500C50F1000041EB045170BD0EF0004E1C
:105DF0004EEA113114EB5C04C2BFD4EB0C0541EA4E
:105E0000045170BD41F480114FF0000E013C90E64A
:105E100045EA060E8DE60CEA135594EA0C0F08BF0E
:105E200095EA0C0F3FF43BAF94EA0C0F0AD150EA0D
:105E300001347FF434AF95EA0C0F7FF425AF1046A0
:105E400019462CE795EA0C0F06D152EA03353FF4C8
:105E5000FDAE1046194622E750EA410618BF52EA45
:105E600043067FF4C5AE50EA41047FF40DAF52EA19
:105E700043057FF4EBAE12E74FF0FF3C06E000BFB6
:105E80004FF0010C02E000BF4FF0010C4DF804CDC3
:105E90004FEA410C7FEA6C5C4FEA430C18BF7FEA83
:105EA0006C5C1BD001B050EA410C0CBF52EA430CB1
:105EB00091EA030F02BF90EA020F0020704710F131
:105EC000000F91EA030F58BF994208BF90422CBFC0
:105ED000D8176FEAE37040F0010070474FEA410CB9
:105EE0007FEA6C5C02D150EA013C07D14FEA430CD7
:105EF0007FEA6C5CD6D152EA033CD3D05DF8040B48
:105F0000704700BF8446104662468C461946634679
:105F100000E000BF01B5FFF7B7FF002848BF10F150
:105F2000000F01BD4DF808EDFFF7F4FF0CBF012095
:105F300000205DF808FB00BF4DF808EDFFF7EAFF11
:105F400034BF012000205DF808FB00BF4DF808EDCC
:105F5000FFF7E0FF94BF012000205DF808FB00BFC1
:105F60004DF808EDFFF7CEFF94BF012000205DF84B
:105F700008FB00BF4DF808EDFFF7C4FF34BF012058
:105F800000205DF808FB00BF4FEA410C7FEA6C5C23
:105F900002D150EA013C0AD14FEA430C7FEA6C5C23
:105FA00002D152EA033C02D14FF0000070474FF09B
:105FB000010070474FEA410212F5001215D211D5C7
:105FC0006FF47873B3EB625212D94FEAC12343F0F6
:105FD000004343EA505311F0004F23FA02F018BF78
:105FE000404270474FF00000704750EA013005D141
:105FF00011F0004008BF6FF0004070474FF0000004
:10600000704700BF4A0011D212F5001211D20DD50F
:106010006FF47873B3EB62520ED44FEAC12343F0AE
:10602000004343EA505323FA02F070474FF0000058
:10603000704750EA013002D14FF0FF3070474FF007
:10604000000070474FEA4102B2F1E04324BFB3F5CC
:10605000001CDCF1FE5C0DD901F0004C4FEAC002DF
:106060004CEA5070B2F1004F40EB830008BF20F0C3
:106070000100704711F0804F21D113F13872BCBF7D
:1060800001F00040704741F480114FEA5252C2F1D2
:106090001802C2F1200C10FA0CF320FA02F018BF1B
:1060A00040F001004FEAC1234FEAD32303FA0CFC6E
:1060B00040EA0C0023FA02F34FEA4303CCE77FEAFD
:1060C000625307D150EA01331EBF4FF0FE4040F447
:1060D0004000704701F0004040F0FE4040F40000F6
:1060E000704700BF10B5054C13462CB10A46014657
:1060F0000220AFF3008010BD204610BD000000005C
:1061000010B5431E0A44914204D011F8014B03F824
:10611000014FF8E710BD02440346934202D003F852
:10612000011BFAE77047000038B5124B1C68A36BDF
:106130000546D3B91820FEF7B9FA43F20E33A0632F
:1061400003804AF6CD33438041F2342383804EF2FC
:106150006D63C3804DF6EC630381052343810B23FC
:10616000838101220023C0E90423A36B00221D6167
:106170005A6138BD80E30320034613F8012B002A3F
:10618000FBD1181A0138704721400D005D400D0009
:1061900089400D008D400D000000000044617461D5
:1061A00020426567696E004461746120456E640039
:1061B0005265636569766564206461746120446F2B
:1061C0006E650054656D70657261747572653A2014
:1061D000002043004C6576656C3A200020496E0033
:1061E0004572726F722072656164696E67205253E6
:1061F0003438350000000000000000002B470D007F
:1062000021470D0017470D000D470D0001470D00F8
:10621000F5460D00E9460D00E1460D00D7460D009C
:10622000CD460D00D9510D00000000000000000017
:1062300049470D004B470D006E616E006F7666009A
:106240002E00696E66006261756400536572696153
:106250006C0053657269616C31007479706500700F
:106260006172616D00636D6400696400686E640052
:106270007374726D0066696C74006C766C00616496
:106280006448616E646C65720072656D6F76654816
:10629000616E646C657200656E756D48616E646CEC
:1062A000657273004A534F4E53747265616D4C6F43
:1062B0006748616E646C65720061707000253031F2
:1062C000307520005D20002564002C200028293A2C
:1062D0002000205B00636F6465203D20002569007D
:1062E00064657461696C73203D20000D0A006C6E5A
:1062F00000666E00636F64650064657461696C00BC
:106300006E6F6E6500747261636500696E666F0022
:106310007761726E006572726F720070616E696390
:1063200000616C6C005A00252B3033643A25303202
:10633000750025592D256D2D25645425483A254D88
:106340003A2553257A0061736374696D6500000016
:106350000000000000000000ED4B0D00DD4B0D00C3
:10636000DF4B0D000000000000000000C54C0D00D8
:10637000154D0D00234D0D0005480D00014D0D007C
:10638000C74C0D00DD4C0D000F4D0D00F34C0D0002
:10639000C14C0D000000000000000000274E0D0061
:1063A0001D4E0D00134E0D00C94D0D00074E0D0082
:1063B000FB4D0D00EF4D0D00E74D0D00DD4D0D00C7
:1063C000D34D0D00D9510D00000000000000000069
:1063D000614E0D00B14E0D00BF4E0D0005480D0081
:1063E000754E0D00974E0D00834E0D00AB4E0D0007
:1063F000634E0D00674E0D0000000000000000001D
:10640000714F0D00BB4F0D00934F0D00734F0D00EA
:106410009B4F0D00A34F0D00AB4F0D00B34F0D0070
:10642000000000000000000053500D0049500D0016
:106430003F500D0035500D0029500D001D500D002E
:1064400011500D0009500D00FF4F0D00F54F0D00CC
:10645000D9510D00000000000000000071510D0036
:106460007B510D0085510D008F510D0099510D008C
:10647000A5510D00B1510D00BD510D00C5510D00CC
:10648000CF510D00D9510D000000000000000000A8
:1064900000000000000000000000000000000000FC
:1064A00000000000000000000000000000000000EC
:1064B00000000000000000000000000000000000DC
:1064C00000000000000000000000000000000000CC
:1064D00000000000000000000000000000000000BC
:1064E00000000000000000000000000051430D000B
:1064F00035470D0099470D00DD470D00694A0D0035
:10650000794A0D00B14A0D00314E0D0021510D00A8
:10651000A5520D0055540D00D9540D009D550D0088
:1065200061560D00000000000000000000000000A7
:046530000000000067
:10653400AA01030000AE00000200000013000000E6
:1065440046630D00000000008C640D00AC640D0077
:10655400CC640D00000000000000000000000000FA
:1065640000000000D2610D000000000000000000E7
:106574000000000000000000000000000000000017
:106584000000000000000000000000000000000007
:1065940000000000000000000000000000000000F7
:0865A4000000000020E30320C9
:1065AC00FFFFFFFF00000102030405060708090AAC
:1065BC000B0C0D0E0F101112131415161718191AA7
:0865CC001B1C1D1E1F202800EE
:0465D40078563412AF
:04000003D0004020C9
:00000001FF
